{
  "_format": "hh-sol-artifact-1",
  "contractName": "ChessEth",
  "sourceName": "contracts/ChessEth.sol",
  "abi": [
    {
      "inputs": [],
      "stateMutability": "nonpayable",
      "type": "constructor"
    },
    {
      "inputs": [
        {
          "internalType": "uint256",
          "name": "_newFees",
          "type": "uint256"
        }
      ],
      "name": "changeFees",
      "outputs": [],
      "stateMutability": "nonpayable",
      "type": "function"
    },
    {
      "inputs": [
        {
          "internalType": "address",
          "name": "_winner",
          "type": "address"
        },
        {
          "internalType": "address",
          "name": "_loser",
          "type": "address"
        },
        {
          "internalType": "uint256",
          "name": "_loserCode",
          "type": "uint256"
        }
      ],
      "name": "claimTokens",
      "outputs": [],
      "stateMutability": "nonpayable",
      "type": "function"
    },
    {
      "inputs": [
        {
          "internalType": "address",
          "name": "wallet",
          "type": "address"
        }
      ],
      "name": "getCodes",
      "outputs": [
        {
          "internalType": "uint256",
          "name": "",
          "type": "uint256"
        },
        {
          "internalType": "uint256",
          "name": "",
          "type": "uint256"
        }
      ],
      "stateMutability": "view",
      "type": "function"
    },
    {
      "inputs": [
        {
          "internalType": "address",
          "name": "",
          "type": "address"
        }
      ],
      "name": "inGame",
      "outputs": [
        {
          "internalType": "bool",
          "name": "",
          "type": "bool"
        }
      ],
      "stateMutability": "view",
      "type": "function"
    },
    {
      "inputs": [
        {
          "internalType": "uint256",
          "name": "_loseCode",
          "type": "uint256"
        },
        {
          "internalType": "uint256",
          "name": "_drawCode",
          "type": "uint256"
        },
        {
          "internalType": "uint256",
          "name": "_wager",
          "type": "uint256"
        }
      ],
      "name": "lockTokens",
      "outputs": [],
      "stateMutability": "payable",
      "type": "function"
    },
    {
      "inputs": [
        {
          "internalType": "address",
          "name": "",
          "type": "address"
        }
      ],
      "name": "lockedTokensOfAddress",
      "outputs": [
        {
          "internalType": "uint256",
          "name": "",
          "type": "uint256"
        }
      ],
      "stateMutability": "view",
      "type": "function"
    },
    {
      "inputs": [],
      "name": "owner",
      "outputs": [
        {
          "internalType": "address payable",
          "name": "",
          "type": "address"
        }
      ],
      "stateMutability": "view",
      "type": "function"
    },
    {
      "inputs": [
        {
          "internalType": "address payable",
          "name": "_newOwner",
          "type": "address"
        }
      ],
      "name": "updateOwner",
      "outputs": [],
      "stateMutability": "nonpayable",
      "type": "function"
    },
    {
      "inputs": [
        {
          "internalType": "address",
          "name": "_opponent",
          "type": "address"
        },
        {
          "internalType": "uint256",
          "name": "_code",
          "type": "uint256"
        }
      ],
      "name": "withdrawTokens",
      "outputs": [],
      "stateMutability": "nonpayable",
      "type": "function"
    }
  ],
  "bytecode": "0x6080604052600a60015534801561001557600080fd5b50336000806101000a81548173ffffffffffffffffffffffffffffffffffffffff021916908373ffffffffffffffffffffffffffffffffffffffff160217905550611429806100656000396000f3fe6080604052600436106100865760003560e01c80636ec24293116100595780636ec24293146101585780638586c26414610195578063880cdc31146101b15780638da5cb5b146101da5780639fc314c81461020557610086565b806306b091f91461008b57806325bc6be1146100b45780636791039b146100f15780636cda375b1461012f575b600080fd5b34801561009757600080fd5b506100b260048036038101906100ad9190610de9565b61022e565b005b3480156100c057600080fd5b506100db60048036038101906100d69190610e29565b610391565b6040516100e89190610e71565b60405180910390f35b3480156100fd57600080fd5b5061011860048036038101906101139190610e29565b6103b1565b604051610126929190610e9b565b60405180910390f35b34801561013b57600080fd5b5061015660048036038101906101519190610ec4565b610495565b005b34801561016457600080fd5b5061017f600480360381019061017a9190610e29565b610511565b60405161018c9190610ef1565b60405180910390f35b6101af60048036038101906101aa9190610f0c565b610529565b005b3480156101bd57600080fd5b506101d860048036038101906101d39190610f9d565b610927565b005b3480156101e657600080fd5b506101ef6109c2565b6040516101fc9190610fd9565b60405180910390f35b34801561021157600080fd5b5061022c60048036038101906102279190610ff4565b6109e6565b005b600460008373ffffffffffffffffffffffffffffffffffffffff1673ffffffffffffffffffffffffffffffffffffffff1681526020019081526020016000205481146102af576040517f08c379a00000000000000000000000000000000000000000000000000000000081526004016102a6906110a4565b60405180910390fd5b3373ffffffffffffffffffffffffffffffffffffffff166108fc600260003373ffffffffffffffffffffffffffffffffffffffff1673ffffffffffffffffffffffffffffffffffffffff168152602001908152602001600020549081150290604051600060405180830381858888f19350505050158015610334573d6000803e3d6000fd5b506000600560003373ffffffffffffffffffffffffffffffffffffffff1673ffffffffffffffffffffffffffffffffffffffff16815260200190815260200160002060006101000a81548160ff0219169083151502179055505050565b60056020528060005260406000206000915054906101000a900460ff1681565b60008060008054906101000a900473ffffffffffffffffffffffffffffffffffffffff1673ffffffffffffffffffffffffffffffffffffffff163373ffffffffffffffffffffffffffffffffffffffff161461040c57600080fd5b600360008473ffffffffffffffffffffffffffffffffffffffff1673ffffffffffffffffffffffffffffffffffffffff16815260200190815260200160002054600460008573ffffffffffffffffffffffffffffffffffffffff1673ffffffffffffffffffffffffffffffffffffffff1681526020019081526020016000205491509150915091565b60008054906101000a900473ffffffffffffffffffffffffffffffffffffffff1673ffffffffffffffffffffffffffffffffffffffff163373ffffffffffffffffffffffffffffffffffffffff161480156104f15750600a8110155b80156104fe575060648111155b61050757600080fd5b8060018190555050565b60026020528060005260406000206000915090505481565b600a60098261053891906110f3565b6105429190611164565b34600260003373ffffffffffffffffffffffffffffffffffffffff1673ffffffffffffffffffffffffffffffffffffffff1681526020019081526020016000205461058d9190611195565b10156105ce576040517f08c379a00000000000000000000000000000000000000000000000000000000081526004016105c590611215565b60405180910390fd5b600034905060008114610664576000600154826105eb9190611164565b905080826105f99190611235565b915060008054906101000a900473ffffffffffffffffffffffffffffffffffffffff1673ffffffffffffffffffffffffffffffffffffffff166108fc829081150290604051600060405180830381858888f19350505050158015610661573d6000803e3d6000fd5b50505b600260003373ffffffffffffffffffffffffffffffffffffffff1673ffffffffffffffffffffffffffffffffffffffff1681526020019081526020016000205482101561079957600082600260003373ffffffffffffffffffffffffffffffffffffffff1673ffffffffffffffffffffffffffffffffffffffff168152602001908152602001600020546106f89190611235565b905080600260003373ffffffffffffffffffffffffffffffffffffffff1673ffffffffffffffffffffffffffffffffffffffff16815260200190815260200160002060008282546107499190611235565b925050819055503373ffffffffffffffffffffffffffffffffffffffff166108fc829081150290604051600060405180830381858888f19350505050158015610796573d6000803e3d6000fd5b50505b80600260003373ffffffffffffffffffffffffffffffffffffffff1673ffffffffffffffffffffffffffffffffffffffff16815260200190815260200160002060008282546107e89190611195565b92505081905550600560003373ffffffffffffffffffffffffffffffffffffffff1673ffffffffffffffffffffffffffffffffffffffff16815260200190815260200160002060009054906101000a900460ff166108c95783600360003373ffffffffffffffffffffffffffffffffffffffff1673ffffffffffffffffffffffffffffffffffffffff1681526020019081526020016000208190555082600460003373ffffffffffffffffffffffffffffffffffffffff1673ffffffffffffffffffffffffffffffffffffffff168152602001908152602001600020819055505b6001600560003373ffffffffffffffffffffffffffffffffffffffff1673ffffffffffffffffffffffffffffffffffffffff16815260200190815260200160002060006101000a81548160ff02191690831515021790555050505050565b60008054906101000a900473ffffffffffffffffffffffffffffffffffffffff1673ffffffffffffffffffffffffffffffffffffffff163373ffffffffffffffffffffffffffffffffffffffff161461097f57600080fd5b806000806101000a81548173ffffffffffffffffffffffffffffffffffffffff021916908373ffffffffffffffffffffffffffffffffffffffff16021790555050565b60008054906101000a900473ffffffffffffffffffffffffffffffffffffffff1681565b3373ffffffffffffffffffffffffffffffffffffffff168373ffffffffffffffffffffffffffffffffffffffff1614610a54576040517f08c379a0000000000000000000000000000000000000000000000000000000008152600401610a4b906112b5565b60405180910390fd5b600360008373ffffffffffffffffffffffffffffffffffffffff1673ffffffffffffffffffffffffffffffffffffffff168152602001908152602001600020548114610ad5576040517f08c379a0000000000000000000000000000000000000000000000000000000008152600401610acc90611321565b60405180910390fd5b6000600560008573ffffffffffffffffffffffffffffffffffffffff1673ffffffffffffffffffffffffffffffffffffffff16815260200190815260200160002060006101000a81548160ff0219169083151502179055506000600560008473ffffffffffffffffffffffffffffffffffffffff1673ffffffffffffffffffffffffffffffffffffffff16815260200190815260200160002060006101000a81548160ff0219169083151502179055506000600260008473ffffffffffffffffffffffffffffffffffffffff1673ffffffffffffffffffffffffffffffffffffffff16815260200190815260200160002054600260008673ffffffffffffffffffffffffffffffffffffffff1673ffffffffffffffffffffffffffffffffffffffff16815260200190815260200160002054610c119190611195565b90506000600260008673ffffffffffffffffffffffffffffffffffffffff1673ffffffffffffffffffffffffffffffffffffffff168152602001908152602001600020819055506000600260008573ffffffffffffffffffffffffffffffffffffffff1673ffffffffffffffffffffffffffffffffffffffff1681526020019081526020016000208190555060003373ffffffffffffffffffffffffffffffffffffffff1682604051610cc390611372565b60006040518083038185875af1925050503d8060008114610d00576040519150601f19603f3d011682016040523d82523d6000602084013e610d05565b606091505b5050905080610d49576040517f08c379a0000000000000000000000000000000000000000000000000000000008152600401610d40906113d3565b60405180910390fd5b5050505050565b600080fd5b600073ffffffffffffffffffffffffffffffffffffffff82169050919050565b6000610d8082610d55565b9050919050565b610d9081610d75565b8114610d9b57600080fd5b50565b600081359050610dad81610d87565b92915050565b6000819050919050565b610dc681610db3565b8114610dd157600080fd5b50565b600081359050610de381610dbd565b92915050565b60008060408385031215610e0057610dff610d50565b5b6000610e0e85828601610d9e565b9250506020610e1f85828601610dd4565b9150509250929050565b600060208284031215610e3f57610e3e610d50565b5b6000610e4d84828501610d9e565b91505092915050565b60008115159050919050565b610e6b81610e56565b82525050565b6000602082019050610e866000830184610e62565b92915050565b610e9581610db3565b82525050565b6000604082019050610eb06000830185610e8c565b610ebd6020830184610e8c565b9392505050565b600060208284031215610eda57610ed9610d50565b5b6000610ee884828501610dd4565b91505092915050565b6000602082019050610f066000830184610e8c565b92915050565b600080600060608486031215610f2557610f24610d50565b5b6000610f3386828701610dd4565b9350506020610f4486828701610dd4565b9250506040610f5586828701610dd4565b9150509250925092565b6000610f6a82610d55565b9050919050565b610f7a81610f5f565b8114610f8557600080fd5b50565b600081359050610f9781610f71565b92915050565b600060208284031215610fb357610fb2610d50565b5b6000610fc184828501610f88565b91505092915050565b610fd381610f5f565b82525050565b6000602082019050610fee6000830184610fca565b92915050565b60008060006060848603121561100d5761100c610d50565b5b600061101b86828701610d9e565b935050602061102c86828701610d9e565b925050604061103d86828701610dd4565b9150509250925092565b600082825260208201905092915050565b7f496e636f7272656374206472617720636f646500000000000000000000000000600082015250565b600061108e601383611047565b915061109982611058565b602082019050919050565b600060208201905081810360008301526110bd81611081565b9050919050565b7f4e487b7100000000000000000000000000000000000000000000000000000000600052601160045260246000fd5b60006110fe82610db3565b915061110983610db3565b925082820261111781610db3565b9150828204841483151761112e5761112d6110c4565b5b5092915050565b7f4e487b7100000000000000000000000000000000000000000000000000000000600052601260045260246000fd5b600061116f82610db3565b915061117a83610db3565b92508261118a57611189611135565b5b828204905092915050565b60006111a082610db3565b91506111ab83610db3565b92508282019050808211156111c3576111c26110c4565b5b92915050565b7f4e6f742073656e7420656e6f7567680000000000000000000000000000000000600082015250565b60006111ff600f83611047565b915061120a826111c9565b602082019050919050565b6000602082019050818103600083015261122e816111f2565b9050919050565b600061124082610db3565b915061124b83610db3565b9250828203905081811115611263576112626110c4565b5b92915050565b7f4e6f742077696e6e657200000000000000000000000000000000000000000000600082015250565b600061129f600a83611047565b91506112aa82611269565b602082019050919050565b600060208201905081810360008301526112ce81611292565b9050919050565b7f496e636f727265637420636f6465000000000000000000000000000000000000600082015250565b600061130b600e83611047565b9150611316826112d5565b602082019050919050565b6000602082019050818103600083015261133a816112fe565b9050919050565b600081905092915050565b50565b600061135c600083611341565b91506113678261134c565b600082019050919050565b600061137d8261134f565b9150819050919050565b7f4661696c656420746f2073656e64206574686572000000000000000000000000600082015250565b60006113bd601483611047565b91506113c882611387565b602082019050919050565b600060208201905081810360008301526113ec816113b0565b905091905056fea2646970667358221220ba1e4ed9272125d0424b05afd9c65c54893f84b8400c8ab35b24dcf5ee4c75ea64736f6c63430008130033",
  "linkReferences": {},
  "deployedLinkReferences": {}
}